:1000000009C010C010C00EC00DC00CC00BC00AC08B
:1000100009C008C011271FBFCFE5D0E0DEBFCDBFAC
:100020000BD0CAC0EDCFF89482981895019B02C0FE
:10003000109A089510980895CDB7DEB7C850D10B27
:100040000FB7F894DEBF0FBFCDBF0A9841B1436030
:1000500041B942B14C7F42B9909A829A4AB7417FE6
:1000600044604ABFE3DF4AB741604ABF7894829A4E
:1000700088954AB74E7F4ABFCF5FDF4F19931993D8
:1000800019931883C450D0400299ECCFCF5FDF4F53
:100090004991599169917881C450D0404F5F5F4F29
:1000A0006F4F7F4FCF5FDF4F4993599369937883A9
:1000B000C450D040972F862F752F642F22E330E055
:1000C00040E050E052D0CB5FDF4F69937993899342
:1000D0009883C850D040672B682B692B21F442B11C
:1000E00051E0452742B969EF70E061507040E9F78F
:1000F00000C00000CF5FDF4F49915991699178812D
:10010000C450D040483E53406107710709F0BCCF4E
:1001100042B152E0452742B9A5CFADB7BEB7AD5FFA
:10012000BF4F2F933F932D913D914D915C91EE27C1
:10013000FF27AA27BB2708C0A20FB31FE41FF51F84
:10014000220F331F441F551F969587957795679506
:1001500098F37040A9F78050904091F76A2F7B2F59
:100160008E2F9F2F3F912F910895A1E21A2FAA1B46
:10017000BB1BEA2FFB2F0DC0AA1FBB1FEE1FFF1FCB
:10018000A217B307E407F50720F0A21BB30BE40B9B
:10019000F50B661F771F881F991F1A9569F76095E1
:1001A000709580959095262F372F482F592F6A2FBD
:0C01B0007B2F8E2F9F2F0895F894FFCF17
:00000001FF
